:1000000000308A00232F00000A108A100A1182078C
:10001000203453344F344C3441345234203454342B
:100020005234413443344B34453452342034203438
:1000300000340A108A100A1182072D342D342D3411
:100040002D342D342D342D342D342D342D342D34A8
:100050002D342D342D342D342D3400340A108A10D3
:100060000A118207203453344F344C344134523413
:100070002034413454342034203448344F344D3407
:100080004534203400340A108A100A1182072034C3
:10009000203450344F3453344934543449344F3479
:1000A0004E34203453344534543420342034003416
:1000B0008316881183128811831608118312081180
:1000C0008316881083128810831608108312081074
:1000D000003403178D0183168C130C1483120C0843
:1000E0000313A4002408A1002108633C03189628E8
:1000F0000330A40003178D010313240803178C0099
:1001000083168C130C15831203130B08F7008B1343
:100110008316031755308D00AA308D008C148C186F
:100120008F280C117708831203138B042408A00076
:10013000013003178D0083168C130C1483120C08E6
:100140000313A4002408A10021083B3C0318C6287F
:10015000A401013003178D000313240803178C003A
:1001600083168C130C15831203130B08F7008B13E3
:100170008316031755308D00AA308D008C148C180F
:10018000BF280C117708831203138B042408AD00D9
:10019000023003178D0083168C130C1483120C0885
:1001A0000313A4002408A10021083B3C0318F628EF
:1001B000A401023003178D000313240803178C00D9
:1001C00083168C130C15831203130B08F7008B1383
:1001D0008316031755308D00AA308D008C148C18AF
:1001E000EF280C117708831203138B042408AE0048
:1001F000033003178D0083168C130C1483120C0824
:100200000313A4002408A10021083B3C031826295D
:10021000A401033003178D000313240803178C0077
:1002200083168C130C15831203130B08F7008B1322
:100230008316031755308D00AA308D008C148C184E
:100240001F290C117708831203138B042408AF00B5
:10025000043003178D0083168C130C1483120C08C2
:100260000313A4002408A10021083B3C03185629CD
:10027000A401043003178D000313240803178C0016
:1002800083168C130C15831203130B08F7008B13C2
:100290008316031755308D00AA308D008C148C18EE
:1002A0004F290C117708831203138B042408B00024
:1002B0008A110A12C92F7108F80170020318632904
:1002C0007008F7006F29F7010830F200F00DF70D04
:1002D000710877020318F700F80DF20B6629003455
:1002E000F701F801700803107118F707F70CF80C04
:1002F000F118F707F70CF80C7119F707F70CF80C61
:10030000F119F707F70CF80C711AF707F70CF80C4E
:10031000F11AF707F70CF80C711BF707F70CF80C3C
:10032000F11BF707F70CF80C00342008AC002C0880
:10033000F0000A30F1005B217808AC002C08F000D6
:100340000A30F100702178082002AB002B08A200CF
:100350002C08A300003471308400831300080319B3
:10036000BF290130F800F701F70BB429F80BB329C6
:100370004A30F700F70BBA29BD29800BB1290034A8
:100380000630F100AB2100340130F100AB21003424
:100390006F106F088316870083120710EF106F0825
:1003A00083168700831287106F116F0883168700EA
:1003B00083120711EF116F088316870083128711CC
:1003C0003D1EE8296F106F088316870083120714FB
:1003D000BD1EF029EF106F08831687008312871463
:1003E0003D1FF8296F116F088316870083120715C8
:1003F000BD1F002AEF116F0883168700831287152F
:100400008316091183120915831609118312091124
:100410006F106F088316870083120710EF106F08A4
:1004200083168700831287106F116F088316870069
:1004300083120711EF116F0883168700831287114B
:100440003D1C282A6F106F0883168700831207143B
:10045000BD1C302AEF106F088316870083128714A3
:100460003D1D382A6F116F08831687008312071508
:10047000BD1D402AEF116F08831687008312871570
:1004800083160911831209158316091183120911A4
:1004900000340430F100AB210034831609118312BB
:1004A00009118316091083120910C821492200344A
:1004B000450B662AC608031D662A4208FA00410851
:1004C0000420F800BE017808BD00952A4508023CCA
:1004D000031D762AC608031D762A4208FA00410841
:1004E0001920F800BE017808BD00952A4508033C94
:1004F000031D862AC608031D862A4208FA00410801
:100500002E20F800BE017808BD00952A4508043C5D
:10051000031D952AC608031D952A4208FA004108C2
:100520004320F800BE017808BD000034831609118D
:10053000831209118316091083120914C821C421DA
:100540000034BE018030BD004D22C201C101C40192
:10055000C301C408031DBB2A43080F3C031CBB2A6C
:10056000582296220130C3070318C40A0130C1077C
:100570000318C20AA92A0034BE01C030BD004D22B2
:10058000C201C101C401C301C408031DD62A430826
:100590000F3C031CD62A582296220130C3070318A9
:1005A000C40A0130C1070318C20AC42A0034C0219A
:1005B0008316091083120910831609118312091179
:1005C000EF116F0883168700831287116F116F0870
:1005D0008316870083120711EF106F0883168700B8
:1005E000831287146F106F08831687008312071415
:1005F0008316091183120915831609118312091133
:10060000C421831609118312091583160911831257
:100610000911C421831609118312091583160911C2
:1006200083120911C4216F106F088316870083128B
:1006300007108316091183120915831609118312F5
:100640000911C421BE012C30BD004D22BE010C3069
:10065000BD004D22BE010630BD004D22BE0101305D
:10066000BD004D224922C6010130C500A122C601AC
:100670000230C500BC228A110A12CB2F0430F000D0
:10068000FA30F100AB21F00B402B00342130F700A1
:10069000F70B482B0034F801F901F701FA01730850
:1006A000031D552B720803196F2B1030F400031033
:1006B000F00DF10DF70DFA0D73087A02031D622B90
:1006C00072087702031C6B2B7208F702031CFA03F3
:1006D0007308FA020314F80DF90DF40B572B0034CC
:1006E0000030F8001F08C33978049F0046239F1488
:1006F0009F18782B83161E088312A5001E08A600DB
:100700002608A8002508A7002608F1002508F00003
:10071000F3010A30F2004B237908A6007808A500FF
:100720002D08A5070318A60A2608A8002508A70073
:10073000A808031D9F2B2708633C0318A22BA601C2
:100740006330A5002508B1002508AC002C08F00096
:100750000A30F1005B217808AC002C08F0000A3068
:10076000F100702178082502AB002B08B5002C0899
:10077000B60000340430F8001F08C33978049F0025
:1007800046239F149F18C22B83161E088312A500B0
:100790001E08A6002608A8002508A7002608F100C4
:1007A0002508F000F3010A30F2004B237908A60077
:1007B0007808A5002E08A5070318A60A2608A80091
:1007C0002508A700A808031DE92B2708633C031888
:1007D000EC2BA6016330A5002508B2002508AC006B
:1007E0002C08F0000A30F1005B217808AC002C08DE
:1007F000F0000A30F100702178082502AB002B08C8
:10080000B7002C08B80000340830F8001F08C339BE
:1008100078049F0046239F149F180C2C83161E08F3
:100820008312A5001E08A6002608A8002508A70018
:100830002608F1002508F000F3010A30F2004B23EE
:100840007908A6007808A5003008A5070318A60AAD
:100850002608A8002508A700A808031D332C270890
:10086000633C0318362CA6016330A5002508B400AC
:100870002508AC002C08F0000A30F1005B21780854
:10088000AC002C08F0000A30F10070217808250235
:10089000AB002B08B9002C08BA0000340C30F8006B
:1008A0001F08C33978049F0046239F149F18562CB5
:1008B00083161E088312A5001E08A6002608A8009D
:1008C0002508A7002608F1002508F000F3010A30EA
:1008D000F2004B237908A6007808A5002F08A50789
:1008E0000318A60A2608A8002508A700A808031DC3
:1008F0007D2C2708633C0318802CA6016330A500DB
:100900002508B3002508AC002C08F0000A30F100DF
:100910005B217808AC002C08F0000A30F10070214F
:1009200078082502AB002B08BB002C08BC00003463
:100930007023BA2304244E248A110A12CE2FA9014F
:10094000AA013108AC003208AB002B082C020318B6
:10095000AB2C0130A9003108AC003208AB002C08E8
:100960002B020318B52C0230A9003408AC00330860
:10097000AB002B082C020318BF2C0130AA0034084E
:10098000AC003308AB002C082B020318C92C023032
:10099000AA008A110A12CF2F290BD82C831688118E
:1009A000831288158316081183120811C02158205C
:1009B0002908023C031DE62C831608118312081532
:1009C0008316881183128811C02158202A0BF22C1B
:1009D0008316881083128814831608108312081057
:1009E000C02158202A08023C031D002D8316081040
:1009F000831208148316881083128810C02158208F
:100A00008A110A12D02F0530F100AB2100342008E2
:100A1000A40003178D010313240803178C00831609
:100A20008C130C15831203130B08F7008B1383161A
:100A3000031755308D00AA308D008C148C181E2D94
:100A40000C117708831203138B0400346F166F08A0
:100A5000831687008312071A3F2D03256F166F0830
:100A6000831687008312071A3F2D0130A007200844
:100A7000633C03183D2D0330A00007259521EF1698
:100A80006F08831687008312871A582D0325EF16E7
:100A90006F08831687008312871A582D0130A00231
:100AA0002008023C031C562D6330A0000725952129
:100AB0008A110A12D12F4530C7003D30C8003030AE
:100AC0003607C90030303507CA002030CB00573018
:100AD000CC003D30CD0030303807CE003030370705
:100AE000CF002030D000D100A908031D812D4C304B
:100AF000D2004530D3005630D4004530D5004C30BC
:100B0000D600290B8D2D4C30D2004530D300463015
:100B1000D4005430D5002030D6002908023C031DF3
:100B20009B2D5230D2004930D3004730D40048309A
:100B3000D5005430D6008A110A12D22FBE0180305F
:100B4000BD004D22C201C101C401C301C408031D7F
:100B5000C22D43080F3C031CC22D473041078400BF
:100B60008313421883170008FA01BD007A08BE00FB
:100B700096220130C3070318C40A0130C1070318C5
:100B8000C20AA62D8A110A12D32F4E30DB003D3047
:100B9000DC0030303A07DD0030303907DE0020302D
:100BA000DF005330E0003D30E10030303C07E20030
:100BB00030303B07E3002030E40030302307E5000D
:100BC00030302207E6002030E700AA08031DEE2D92
:100BD0004C30E8005630E9004C30EA002A0BF62D84
:100BE0005530E8005030E9002030EA002A08023C85
:100BF000031D002E4430E8004E30E9002030EA00AA
:100C00008A110A12D42FBE01C030BD004D22C2018C
:100C1000C101C401C301C408031D272E43080F3CB2
:100C2000031C272E5B30410784008313421883176F
:100C30000008FA01BD007A08BE0096220130C30701
:100C40000318C40A0130C1070318C20A0B2E8A1107
:100C50000A12D52F2008AB002B08653CAB00AC0175
:100C60002B082C0203184B2E0530F100AB216F1618
:100C70006F08831687008312071A402E6930AC0074
:100C8000EF166F08831687008312871A492E693082
:100C9000AC00AC0A302E8A110A12D62FAD01AE017B
:100CA000AF01B0017023BA233108AB003208AC00A9
:100CB0002B082C020318632E3108AB003208AC005D
:100CC0002C082B02AE003108AB003208AC002C0817
:100CD0002B020318722E3108AB003208AC002B082F
:100CE0002C02AD004E2404243308AB003408AC00C1
:100CF0002B082C020318832E3308AB003408AC00F9
:100D00002C082B02B0003308AB003408AC002C08D0
:100D10002B020318922E3308AB003408AC002B08CA
:100D20002C02AF002D08A400013003178D0003131F
:100D3000240803178C0083168C130C1583120313DD
:100D40000B08F7008B138316031755308D00AA305C
:100D50008D008C148C18AA2E0C11770883120313A3
:100D60008B042E08A400023003178D0003132408FF
:100D700003178C0083168C130C15831203130B08B6
:100D8000F7008B138316031755308D00AA308D00A2
:100D90008C148C18C92E0C117708831203138B0442
:100DA0002F08A400033003178D0003132408031732
:100DB0008C0083168C130C15831203130B08F70099
:100DC0008B138316031755308D00AA308D008C14B9
:100DD0008C18E82E0C117708831203138B0430084B
:100DE000A400043003178D000313240803178C009C
:100DF00083168C130C15831203130B08F7008B1347
:100E00008316031755308D00AA308D008C148C1872
:100E1000072F0C117708831203138B04C6010330CC
:100E2000C500A122C6010430C500BC223E233E23DA
:100E30008A110A12E52F0230F0009630F100AB2142
:100E4000F00B1D2F003403081F3983005730F700C3
:100E50002030840083138001840AF70B2B2FF801C4
:100E6000F901FA01FB01FC01FD01FE015030F70020
:100E7000A030840083138001840AF70B3B2F60307D
:100E8000F7001030840083178001840AF70B442F89
:100E900083136030F7009030840083178001840A48
:100EA000F70B4E2F8313A001840183131F3083059A
:100EB000613083168F000F08031787111930031351
:100EC0009900A6309800903083129800831603177B
:100ED0000908C039890003131F129F12003003173D
:100EE000880083128701880189010313A001A101F1
:100EF000A201A301A401A501A601A701A801A901BE
:100F0000AA01AB01AC01FF30EF00831603170908FB
:100F1000C039890003131F129F120F300317880076
:100F2000831203131F179F1783169F1783121F1413
:100F30009412EF126F088316870083126F166F08E2
:100F4000831687008312EF116F0883168700013024
:100F5000831294000030831694000108C7390838C2
:100F60008100831290010030F80092000030831657
:100F700092008312031787018801890183160313E6
:100F8000891083128910AD01AE01AF01B001582064
:100F900069289521D72A3E233E23982C9F2CCC2CC0
:100FA000262D5B2D9E2DC52D032E2A2EEF166F08A4
:100FB000831687008312871AE62F6F166F08831631
:100FC00087008312071AE52F4E2E1B276F166F0816
:100FD000831687008312071AEE2F1B27CD2F63007D
:04400E001420FF3F3C
:00000001FF
;PIC16F887
